:100000000C9463000C948B000C948B000C944506AC
:100010000C9445060C9445060C948B000C948B00B4
:100020000C948B000C949C050C948B000C948B000E
:100030000C948B000C948B000C948B000C948B0014
:100040000C9452050C948B000C9420050C94FA042B
:100050000C948B000C948B000C948B000C948B00F4
:100060000C948B000C948B000000000024002700EF
:100070002A0000000008000201000003040700003D
:1000800000000000000000000000230026002900FE
:1000900000000000250028002B00040404040404D0
:1000A0000404020202020202030303030303010227
:1000B00004081020408001020408102001020408F6
:1000C0001020C906450F11241FBECFEFD8E0DEBFB8
:1000D000CDBF11E0A0E0B1E0ECE9F0E202C0059094
:1000E0000D92AA3AB107D9F724E0AAEAB1E001C01B
:1000F0001D92A332B207E1F710E0C2E6D0E004C0DF
:100100002197FE010E943210C136D107C9F70E9423
:100110008E070C9441100C940000AF92BF92CF92C6
:10012000DF92EF92FF920F931F93CF93DF936C01B7
:100130007B018B01040F151FEB015E01AE18BF0898
:10014000C017D10759F06991D601ED91FC9101904A
:10015000F081E02DC6010995892B79F7C501DF9162
:10016000CF911F910F91FF90EF90DF90CF90BF90B4
:10017000AF900895FC01538D448D252F30E0842FDE
:1001800090E0821B930B541710F0CF9608950197BF
:100190000895FC01918D828D981761F0A28DAE0FAC
:1001A000BF2FB11D5D968C91928D9F5F9F73928F33
:1001B00090E008958FEF9FEF0895FC01918D828D5F
:1001C000981731F0828DE80FF11D858D90E008952C
:1001D0008FEF9FEF0895FC01918D228D892F90E084
:1001E000805C9F4F821B91098F739927089581E648
:1001F00093E00E94EB0021E0892B09F420E0822F9C
:10020000089580E090E0892B29F00E94F700811189
:100210000C9400000895FC01A48DA80FB92FB11D06
:10022000A35ABF4F2C91848D90E001968F7399272C
:10023000848FA689B7892C93A089B1898C9183700A
:1002400080648C93938D848D981306C00288F38903
:10025000E02D80818F7D80830895EF92FF920F9330
:100260001F93CF93DF93EC0181E0888F9B8D8C8D62
:1002700098131AC0E889F989808185FF15C09FB756
:10028000F894EE89FF896083E889F9898081837019
:10029000806480839FBF81E090E0DF91CF911F91C8
:1002A0000F91FF90EF900895F62E0B8D10E00F5FE9
:1002B0001F4F0F731127E02E8C8D8E110CC00FB6BF
:1002C00007FCFACFE889F989808185FFF5CFCE0157
:1002D0000E940B01F1CFEB8DEC0FFD2FF11DE35AC6
:1002E000FF4FF0829FB7F8940B8FEA89FB898081DA
:1002F0008062CFCFCF93DF93EC01888D8823B9F054
:10030000AA89BB89E889F9898C9185FD03C0808120
:1003100086FD0DC00FB607FCF7CF8C9185FFF2CF9D
:10032000808185FFEDCFCE010E940B01E9CFDF91E7
:10033000CF91089590E0FC01EE58FF4F2491FC010D
:10034000E255FF4F3491FC01E656FF4FE491EE2356
:10035000C9F0222339F0233001F1A8F4213019F13A
:10036000223029F1F0E0EE0FFF1FE057FF4FA5917B
:10037000B4918FB7F894EC91611126C030953E236B
:100380003C938FBF08952730A9F02830C9F024305E
:1003900049F7809180008F7D03C0809180008F7726
:1003A00080938000DFCF84B58F7784BDDBCF84B5A9
:1003B0008F7DFBCF8091B0008F778093B000D2CF3C
:1003C0008091B0008F7DF9CF3E2BDACFCF93DF93B2
:1003D00090E0FC01E255FF4F249186569F4FFC01AF
:1003E00084918823D1F090E0880F991FFC01E8598F
:1003F000FF4FA591B491FC01E057FF4FC591D491F7
:1004000061110EC09FB7F8948C91E22FE0958E2376
:100410008C932881E223E8839FBFDF91CF910895D9
:100420008FB7F894EC91E22BEC938FBFF6CF8E3020
:1004300008F08E508770806480937C0080917A00F1
:10044000806480937A0080917A0086FDFCCF809151
:1004500078009091790008953FB7F8948091DB027D
:100460009091DC02A091DD02B091DE0226B5A89B3E
:1004700005C02F3F19F00196A11DB11D3FBFBA2F36
:10048000A92F982F8827BC01CD01620F711D811DF6
:10049000911D42E0660F771F881F991F4A95D1F77B
:1004A00008958F929F92AF92BF92CF92DF92EF9278
:1004B000FF920E942C024B015C018AE0C82ED12CD5
:1004C000E12CF12C0E942C02681979098A099B09F8
:1004D000683E734081059105A8F321E0C21AD10856
:1004E000E108F10888EE880E83E0981EA11CB11C7B
:1004F000C114D104E104F10429F7FF90EF90DF90DB
:10050000CF90BF90AF909F908F900895DC01EC91B9
:100510008FEF8E0F8830F8F4CB016B3C784014F0ED
:100520008AEC98E08E3E22E0920714F48EEE92E080
:100530000897AC01440F452F441F550B2E2F30E078
:10054000F901EE0FFF1FE20FF31FE554FD4F41834A
:10055000880F8095828308951F93CF93DF93EC01DA
:10056000162F8091BA02811122C0EBEBF2E083EDED
:1005700092E03BE027E53483258333968E179F076F
:10058000D1F78EE38093BC021092B9021092B802A8
:10059000109270001092B00082E08093B10010922F
:1005A000B20081E087BB809370008093BA0288819B
:1005B0008823A1F061E0812F0E94E601E8818E2F5F
:1005C00090E0FC01EE0FFF1FE80FF91FE554FD4F0F
:1005D0001F716081607E612B606260838881DF9122
:1005E000CF911F9108952091E1023091E2022817E6
:1005F000390771F49091DF028091E002981741F081
:10060000E091DF02F0E0E958FD4F808190E008952D
:100610008FEF9FEF08950895EF92FF920F931F932E
:10062000CF93DF93DC015C96ED90FC905D97E11435
:10063000F10479F481E090E013969C938E931297E5
:1006400090E080E0DF91CF911F910F91FF90EF90AC
:1006500008955196ED91FC91529750968C91509738
:10066000982F90950FB75E962C915E97122F12706F
:1006700021FD6095F8942081112319F1282B208306
:10068000E7012197F1F728E0462F50E0308160FF25
:100690001AC0382B3083E7012197F1F7BA0175951D
:1006A0006795215089F7112381F080818923808308
:1006B0000FBF5C968D919C910197F1F781E090E0DE
:1006C000C1CF2923DCCF3923E5CF9081892BEFCF10
:1006D0002091E1023091E2022817390771F48091EC
:1006E000E0022091DF0290E0805C9F4F821B910925
:1006F00060E470E00E940310089590E080E00895A7
:100700002091E1023091E20228173907B9F4909163
:10071000DF028091E002981789F0E091DF02F0E0BB
:10072000E958FD4F80812091DF0230E02F5F3F4F7D
:100730002F7333272093DF0290E008958FEF9FEF10
:10074000089590E080E00895CF93DF93C1E0D7EC67
:100750008EEF93E00E946803181619065CF58091ED
:100760007602811127C08EEF93E00E948003909162
:10077000AB019923D1F09091AA01E92FF0E0E25565
:10078000FE4F8E3351F080839F5F983C18F0D093DA
:10079000AA01DECF9093AA01DBCF10821092AB01A9
:1007A0001092AA01C0937602D3CF8C3389F6C093FE
:1007B000AB01CECFDF91CF910895FC0101900020D5
:1007C000E9F73197AF01481B590BBC0181E693E073
:1007D0000C948D00CF93DF93D0E0C0E0009719F028
:1007E0000E94DD03EC018CE291E00E94DD038C0F9E
:1007F0009D1FDF91CF9108958F929F92AF92BF92EC
:10080000CF92DF92EF92FF920F931F93CF93DF93DC
:10081000CDB7DEB7A1970FB6F894DEBF0FBECDBF40
:100820006C01990FEE08FF08F7FE47C06DE281E604
:1008300093E00E942D018C0122273327A9012C1956
:100840003D094E095F0919A2CE0181967C019AE00B
:10085000892E912CA12CB12CCA01B901A5019401BA
:100860000E94D20F605DF70162937F01211531056F
:100870004105510589F790E080E0309719F0CF01EC
:100880000E94DD03080F191F8CE291E00E94DD0336
:10089000800F911FA1960FB6F894DEBF0FBECDBF9B
:1008A000DF91CF911F910F91FF90EF90DF90CF904C
:1008B000BF90AF909F908F900895A701960119A2C5
:1008C0008E010F5D1F4F8AE0C82ED12CE12CF12C38
:1008D000CA01B901A70196010E94D20F605DF8011B
:1008E00062938F01211531054105510589F7309734
:1008F00029F0CF010E94DD038C01C6CF10E000E09B
:10090000C3CF80917602882309F447C08FE291E03B
:100910000E94DD038EEA91E00E94EA0361E471E047
:100920008EEA91E00E947F0F9093AD018093AC011D
:100930008091AC019091AD01009749F1E0915F0386
:10094000F0916003EE0FFF1FE550FD4F9183808310
:100950000E94EA0380915F03909160030196909357
:10096000600380935F0361E471E090E080E00E94A7
:100970007F0F9093AD018093AC018091EF02909135
:10098000F00201969093F0028093EF02D1CF109283
:10099000600310925F031092760208951092FC0299
:1009A0001092FB021092600310925F031092F0020B
:1009B0001092EF021092EE021092ED026EEE72E0D3
:1009C00080E294E00E9486026EEE72E08FE194E095
:1009D0000E9486026EEE72E08EE194E00E94860232
:1009E0006EEE72E08DE194E00E9486020E94A40304
:1009F0000C9481041F920F920FB60F9211242F9323
:100A00003F934F935F936F937F938F939F93AF9396
:100A1000BF93EF93FF9381E693E00E940B01FF9158
:100A2000EF91BF91AF919F918F917F916F915F9166
:100A30004F913F912F910F900FBE0F901F901895DF
:100A40001F920F920FB60F9211242F938F939F93A3
:100A5000EF93FF93E0917103F09172038081E09135
:100A60007703F091780382FD1BC0908180917A0317
:100A70008F5F8F7320917B03821741F0E0917A039F
:100A8000F0E0EF59FC4F958F80937A03FF91EF913F
:100A90009F918F912F910F900FBE0F901F901895DF
:100AA0008081F4CF1F920F920FB60F9211242F93D3
:100AB0003F938F939F93AF93BF938091D702909171
:100AC000D802A091D902B091DA023091D60223E087
:100AD000230F2D3758F50196A11DB11D2093D60285
:100AE0008093D7029093D802A093D902B093DA02F0
:100AF0008091DB029091DC02A091DD02B091DE02D8
:100B00000196A11DB11D8093DB029093DC02A0939E
:100B1000DD02B093DE02BF91AF919F918F913F9123
:100B20002F910F900FBE0F901F90189526E8230F5E
:100B30000296A11DB11DD2CF1F920F920FB60F9238
:100B400011242F933F934F935F936F937F938F93D2
:100B50009F93AF93BF93EF93FF938091B8028F5F02
:100B60008093B802E091B9022091B8028E2F90E0F4
:100B7000FC01EE0FFF1FE80FF91FE554FD4F8181C7
:100B8000E091B90282131DC08E2F90E0FC01EE0FA0
:100B9000FF1FE80FF91FE554FD4F82818093B200DB
:100BA000FF91EF91BF91AF919F918F917F916F9145
:100BB0005F914F913F912F910F900FBE0F901F901B
:100BC00018952091B8028E2F90E0FC01EE0FFF1FC8
:100BD000E80FF91FE554FD4F8181821708F7E09176
:100BE000B9028E2F90E0FC01EE0FFF1FE80FF91FF6
:100BF000E554FD4F808185FF10C0E091B9028E2F32
:100C000090E0FC01EE0FFF1FE80FF91FE554FD4FC8
:100C1000808160E08F710E949A018091B9028F5F9C
:100C20008093B9021092B8021092B2008091B9027A
:100C3000882319F18091B9028930F8F4E091B90262
:100C40008E2F90E0FC01EE0FFF1FE80FF91FE55417
:100C5000FD4F808185FFA4CFE091B9028E2F90E0F7
:100C6000FC01EE0FFF1FE80FF91FE554FD4F8081D7
:100C700061E08F710E949A0193CF8091B90289300F
:100C800008F48ECF1092B9028BCF1F920F920FB63D
:100C90000F9211242F933F934F935F936F937F9302
:100CA0008F939F93AF93BF93EF93FF93E091E102F4
:100CB000F091E202309749F0A685B7858585968D3B
:100CC00091FF14C09C918923A1F4FF91EF91BF91F2
:100CD000AF919F918F917F916F915F914F913F91D4
:100CE0002F910F900FBE0F901F9018959C91892304
:100CF00061F7A389B4899C918589809589238C9318
:100D0000868997890197F1F7608D718DA685B785E2
:100D1000558538E020E0CB010197F1F7822F90E074
:100D200095958795282F4C91452309F020683150DF
:100D300091F7868D81FD20958091E00290E00196EB
:100D40008F7399273091DF02381799F0A091E00254
:100D5000B0E0A958BD4F2C938093E002828D938D13
:100D60000197F1F7A389B4898C919589892B8C938C
:100D7000ACCF868D8160868FF1CFFC019091B70258
:100D8000983028F49F5F9093B70290830895108263
:100D90000895CF92DF92EF92FF9210926403109227
:100DA000630398EEC92E93E0D92EE12CF12CC0926A
:100DB0006503D0926603E0926703F09268038CE0CB
:100DC00091E0909362038093610385EC90E09093AF
:100DD0006E0380936D0384EC90E090937003809396
:100DE0006F0380EC90E0909372038093710381EC29
:100DF00090E0909374038093730382EC90E090935F
:100E000076038093750386EC90E09093780380934B
:100E1000770310927A0310927B0310927C03109256
:100E20007D0380E294E00E94BD068FE194E00E9481
:100E3000BD068EE194E00E94BD068DE194E00E9423
:100E4000BD061092010410920004C0920204D092D8
:100E50000304E0920404F09205048EE191E0909383
:100E6000FF038093FE031092150410921404109255
:100E7000170410921604109219041092180410927C
:100E80001B0410921A0460911C046E7F6D7F6093A6
:100E90001C046695617081E0682784E00E949A01D5
:100EA00061E084E00E94E601E2EBF0E0E491E0938F
:100EB0000E04EEE9F0E0E491F0E0EE0FFF1FE057E2
:100EC000FF4F859194919093100480930F0460E0FC
:100ED00082E00E94E60180911C0481FD04C061E073
:100EE00082E00E949A0182E080930A04E0EBF0E045
:100EF000E491E0930B04ECE9F0E0E491F0E0EE0F14
:100F0000FF1FEA57FF4F8591949190930D048093B2
:100F10000C04FF90EF90DF90CF900895CF93DF9374
:100F200000D0CDB7DEB7789484B5826084BD84B537
:100F3000816084BD85B5826085BD85B5816085BDD4
:100F400080916E00816080936E001092810080918C
:100F50008100826080938100809181008160809314
:100F60008100809180008160809380008091B10039
:100F700084608093B1008091B00081608093B00064
:100F800080917A00846080937A0080917A008260F8
:100F900080937A0080917A00816080937A008091BA
:100FA0007A00806880937A001092C100E09171030A
:100FB000F091720382E08083E0916D03F0916E0303
:100FC0001082E0916F03F09170038FEC8083109298
:100FD0007903E0917503F091760386E08083E091D8
:100FE0007303F0917403808180618083E0917303C7
:100FF000F0917403808188608083E0917303F091A5
:101000007403808180688083E0917303F09174039E
:1010100080818F7D808310921904109218041092A1
:1010200017041092160410921504109214048DE9FE
:1010300091E090931B0480931A0490910A049631D6
:1010400008F047C02DEB30E03093150420931404D2
:101050002BE931E030931704209316042CE231E0A1
:1010600030931904209318042091680084E098308C
:1010700048F031E09E3008F430E081E001C0880F94
:101080003A95EAF7822B809368002DE630E098309D
:1010900050F02BE630E09E3030F02CE630E0963118
:1010A00010F030E020E03093120420931104292F37
:1010B00030E0983008F0D9C081E001C0880F9A95DF
:1010C000EAF78093130480911A0490911B0401970E
:1010D000F1F78091180490911904892B49F1E0915E
:1010E000E102F091E20223E0EE3FF20709F13097CE
:1010F00039F0A389B4899C918589809589238C9343
:1011000080911C048E7F80931C041092E002109248
:10111000DF028EEF93E09093E2028093E102E09190
:101120001104F0911204808190911304892B808323
:1011300066E070E080E294E00E94AC0269E070E05A
:101140008FE194E00E94AC026AE070E08EE194E0EE
:101150000E94AC026BE070E08DE194E00E94AC0272
:101160006EEE72E080E294E00E9486026EEE72E023
:101170008FE194E00E9486026EEE72E08EE194E0D0
:101180000E9486026EEE72E08DE194E00E9486027B
:1011900083E491E00E94EA036DE1C62E69E0D62E59
:1011A0007DE4272E78E0372EE6E74E2EE8E05E2E2F
:1011B000F4EB8F2E912CA12CB12C0E94A4030E9441
:1011C000810400915F0310916003F801EE0FFF1F8F
:1011D000E550FD4FE080F18066E571E0C7010E94B7
:1011E0003810892B09F0A9C0F801EE0FFF1FE3505A
:1011F000FD4F808191810E94610F9093FA0280934C
:10120000F90218161906F4F52CED35E0DC010E9400
:101210001710A50194010E94B30FDA01C901825190
:101220009D4FAF4FBF4F3C019093F8028093F70260
:101230008EEE92E09093F6028093F502E090F50234
:10124000F090F602E614F7040CF05EC0B7018EE1F0
:1012500094E00E9486020E94510298E0E90EF11C7F
:10126000F092F602E092F502E9CF9E3040F4285069
:10127000310981E001C0880F2A95EAF722CF2E506C
:101280003109F7CF009709F43FC0AA27BB27A81B55
:10129000B90BB093F402A093F3022CED35E00E9459
:1012A0001710A50194010E94B30FDA01C901825100
:1012B0009D4FAF4FBF4F3C019093F2028093F102DC
:1012C0008EEE92E09093F6028093F502C301825174
:1012D0009D4F9A838983E090F502F090F602E61420
:1012E000F70494F469817A816E197F098EE194E0A4
:1012F0000E9486020E94510298E0E90EF11CF092D1
:10130000F602E092F502E7CF0E5F1F4F10936003E5
:1013100000935F038091EF029091F002029708170B
:10132000190709F008C28091ED029091EE02019632
:101330009093EE028093ED02FEC16BE571E0C70170
:101340000E943810892B09F09CC0000F111FF80172
:10135000E350FD4F808191810E94610F9093FA02CA
:101360008093F902C7010E94EA0380E691E00E949F
:10137000EA038091F9029091FA0218161906D4F541
:101380000E94FC03A091F902B091FA022CED35E025
:101390000E941710A50194010E94B30FDA01C90140
:1013A00082519D4FAF4FBF4F9093F8028093F70249
:1013B0000E94FC038EEE92E09093F6028093F50279
:1013C0000091F5021091F6028091F7029091F802D7
:1013D000081719070CF09CC1B8018FE194E00E9436
:1013E00086020E945102085F1F4F1093F60200937D
:1013F000F502E6CF009709F48BC19195819591098B
:101400009093F4028093F3020E94FC03A091F302F4
:10141000B091F4022CED35E00E941710A501940163
:101420000E94B30FDA01C90182519D4FAF4FBF4FE8
:101430009093F2028093F1020E94FC038EEE92E000
:101440009093F6028093F5020091F5021091F60256
:101450006091F1027091F202061717070CF058C163
:1014600062517D4F601B710B8FE194E00E948602F8
:101470000E945102085F1F4F1093F6020093F5027D
:10148000E3CF60E771E0C7010E943810892B09F0B3
:101490009CC0000F111FF801E350FD4F8081918126
:1014A0000E94610F9093FA028093F902C7010E9493
:1014B000EA0380E691E00E94EA038091F9029091AC
:1014C000FA0218161906D4F50E94FC03A091F9023D
:1014D000B091FA022CED35E00E941710A50194019D
:1014E0000E94B30FDA01C90182519D4FAF4FBF4F28
:1014F0009093F8028093F7020E94FC038EEE92E034
:101500009093F6028093F5020091F5021091F60295
:101510008091F7029091F802081719070CF0F8C0B3
:10152000B8018DE194E00E9486020E945102085F9A
:101530001F4F1093F6020093F502E6CF009709F4CF
:10154000E7C09195819591099093F4028093F302FD
:101550000E94FC03A091F302B091F4022CED35E05F
:101560000E941710A50194010E94B30FDA01C9016E
:1015700082519D4FAF4FBF4F9093F2028093F10283
:101580000E94FC038EEE92E09093F6028093F502A7
:101590000091F5021091F6026091F1027091F20251
:1015A000061717070CF0B4C062517D4F601B710B1A
:1015B0008DE194E00E9486020E945102085F1F4F55
:1015C0001093F6020093F502E3CF66E771E0C701DE
:1015D0000E943810892B09F0BBC0000F111FF801C1
:1015E000E350FD4F808191810E94610F9093FA0238
:1015F0008093F902C7010E94EA0380E691E00E940D
:10160000EA038091F9029091FA0218161906D4F5AE
:101610000E94FC03A091F902B091FA022CED35E092
:101620000E941710A50194010E94B30FDA01C901AD
:1016300082519D4FAF4FBF4F9093F8028093F702B6
:101640000E94FC038EEE92E09093F6028093F502E6
:101650000091F5021091F6028091F7029091F80244
:10166000081719070CF054C0B80180E294E00E94FA
:1016700086020E945102085F1F4F1093F6020093EA
:10168000F502E6CF009709F443C091958195910941
:101690009093F4028093F3020E94FC03A091F30262
:1016A000B091F4022CED35E00E941710A5019401D1
:1016B0000E94B30FDA01C90182519D4FAF4FBF4F56
:1016C0009093F2028093F1020E94FC038EEE92E06E
:1016D0009093F6028093F5020091F5021091F602C4
:1016E0006091F1027091F202061717078CF46251B3
:1016F0007D4F601B710B80E294E00E9486020E9485
:101700005102085F1F4F1093F6020093F502E4CFD9
:1017100080915F03909160030296909360038093A1
:101720005F032091EF023091F002225031098217BD
:10173000930709F4F8CD80E090E0892B09F43DCDC2
:101740000E94F700882309F438CD0E94000035CDAF
:101750006090FB027090FC026BE771E0C3010E9495
:101760003810892B09F088C18EEE92E09093F60232
:101770008093F5020091F5021091F602003396E095
:101780001907E4F4B801003425E012072CF48FE1C6
:1017900094E00E948602B8018DE194E00E948602E6
:1017A000B80180E294E00E9486020E945102085F24
:1017B0001F4F1093F6020093F502DCCF8EEE92E0FD
:1017C0009093F6028093F5020091F5021091F602D3
:1017D000003396E0190784F4B601601B710B80E2B8
:1017E00094E00E9486020E945102085F1F4F1093EE
:1017F000F6020093F502E8CF8EEE92E09093F602A7
:101800008093F5020091F5021091F602003396E004
:10181000190784F4B601601B710B8DE194E00E94FE
:1018200086020E945102085F1F4F1093F602009338
:10183000F502E8CF8EEE92E09093F6028093F502E7
:101840000091F5021091F602003695E0190774F444
:10185000B8018EE194E00E9486020E945102085F66
:101860001F4F1093F6020093F502EACF8EEE92E03E
:101870009093F6028093F5020091F5021091F60222
:10188000003396E0190774F4B8018DE194E00E94EA
:1018900086020E945102085F1F4F1093F6020093C8
:1018A000F502EACF8EEE92E09093F6028093F50275
:1018B0000091F5021091F602003396E0190774F4D6
:1018C000B80180E294E00E9486020E945102085F03
:1018D0001F4F1093F6020093F502EACF8EEE92E0CE
:1018E0009093F6028093F5020091F5021091F602B2
:1018F000003396E0190784F4B601601B710B80E297
:1019000094E00E9486020E945102085F1F4F1093CC
:10191000F6020093F502E8CF8EEE92E09093F60285
:101920008093F5020091F5021091F602003396E0E3
:10193000190784F4B601601B710B8DE194E00E94DD
:1019400086020E945102085F1F4F1093F602009317
:10195000F502E8CF8EEE92E09093F6028093F502C6
:101960000091F5021091F602003695E0190784F413
:10197000B101601B710B8EE194E00E9486020E940F
:101980005102085F1F4F1093F6020093F502E8CF53
:101990008EEE92E09093F6028093F5020091F502AC
:1019A0001091F602003396E0190774F4B8018DE146
:1019B00094E00E9486020E945102085F1F4F10931C
:1019C000F6020093F502EACF8EEE92E09093F602D3
:1019D0008093F5020091F5021091F602003396E033
:1019E000190774F4B80180E294E00E9486020E9414
:1019F0005102085F1F4F1093F6020093F502EACFE1
:101A00008EEE92E09093F6028093F502E090F5025C
:101A1000F090F60290E3E91696E0F90654F5860197
:101A20000E191F09B8018DE194E020E4E21625E0CB
:101A3000F206CCF40E948602B80180E294E00E9493
:101A400086026DE278E06E197F098FE194E00E94D2
:101A500086020E94510288E0E80EF11CF092F60224
:101A6000E092F502D3CF0E948602B80180E294E0B2
:101A7000EECF0E94CE045FCE64E871E0C7010E9401
:101A80003810892B09F0E9C08EEE92E09093F602AF
:101A90008093F5020091F5021091F602003396E072
:101AA000190774F4B80180E294E00E9486020E9453
:101AB0005102085F1F4F1093F6020093F502EACF20
:101AC0008EEE92E09093F6028093F5020091F5027B
:101AD0001091F602003396E0190784F4B601601BFA
:101AE000710B80E294E00E9486020E945102085F1E
:101AF0001F4F1093F6020093F502E8CF8EEE92E0AE
:101B00009093F6028093F5020091F5021091F6028F
:101B1000003695E0190774F4B8018EE194E00E9454
:101B200086020E945102085F1F4F1093F602009335
:101B3000F502EACF8EEE92E09093F6028093F502E2
:101B40000091F5021091F602003695E0190784F431
:101B5000B101601B710B8EE194E00E9486020E942D
:101B60005102085F1F4F1093F6020093F502E8CF71
:101B70008EEE92E09093F6028093F5020091F502CA
:101B80001091F602093895E0190774F4B8018FE155
:101B900094E00E9486020E945102085F1F4F10933A
:101BA000F6020093F502EACF8EEE92E09093F602F1
:101BB0008093F5020091F5021091F602093895E044
:101BC000190784F4B201601B710B8FE194E00E944D
:101BD00086020E945102085F1F4F1093F602009385
:101BE000F502E8CF8EEE92E09093F6028093F50234
:101BF0000091F5021091F602093895E0190774F486
:101C0000B8018DE194E00E9486020E945102085FB3
:101C10001F4F1093F6020093F502EACF8EEE92E08A
:101C20009093F6028093F5020091F5021091F6026E
:101C3000093895E019070CF01CCFB201601B710B3D
:101C40008DE194E00E9486020E945102085F1F4FBE
:101C50001093F6020093F502E7CF69E871E0C7013F
:101C60000E943810892B39F5000F111FF801E3503D
:101C7000FD4F808191810E94610F9093EC028093CF
:101C8000EB028091ED029091EE020E94FC03209104
:101C9000EB023091EC028091ED029091EE02281758
:101CA000390721F40E94CE040E9451021092600371
:101CB00010925F0340CD64E971E0C7010E943810C3
:101CC000892B09F0CDC08EE00E9417028C01909301
:101CD000EA028093E90281E10E9417027C0190935D
:101CE000E8028093E70280E10E9417023C01909392
:101CF000E6028093E5028FE00E9417029093E402CF
:101D00008093E3028E3521E092070CF066C060916B
:101D1000060170910701633F82E0780764F060512B
:101D20007109709307016093060180E294E00E94BC
:101D300086020E9451020E3591E019070CF05DC039
:101D400060910401709105016B3C28E0720764F416
:101D5000605F7F4F70930501609304018FE194E011
:101D60000E9486020E9451022BE8E21622E0F2064F
:101D70000CF453C060910201709103016B3C88E048
:101D8000780764F4605F7F4F7093030160930201F2
:101D90008EE194E00E9486020E9451028BE8681650
:101DA00082E078060CF44BC0609100017091010153
:101DB000633F92E0790764F060517109709301010B
:101DC000609300018DE194E00E9486020E9451021E
:101DD0000E94A4030E948104AECC8B3892400CF484
:101DE000AACF60910601709107016B3C88E07807EB
:101DF0000CF0A1CF605F7F4F94CF0B3812400CF4F2
:101E0000B3CF6091040170910501633F92E07907BF
:101E10000CF4AACF605171099DCF9EE5E91691E0BF
:101E2000F9060CF0BBCF6091020170910301633F92
:101E300022E072070CF4B2CF60517109A5CF2EE5F4
:101E4000621621E0720624F6609100017091010192
:101E50006B3C88E078070CF0BBCF605F7F4FAECF64
:101E60006DE971E0C3010E943810892B29F40E94AA
:101E7000CE040E9451025FCC65EA71E0C3010E946A
:101E80003810892B09F057CCF2CF8EE191E0909376
:101E9000FF038093FE038091E1029091E2028E5F46
:101EA000934071F4E0911104F091120490818091BB
:101EB00013048095892380831092E2021092E1023C
:101EC0000895FC0188279927E89421912032E9F3AD
:101ED000293010F02E30C8F32B3241F02D3239F476
:101EE000689404C00E94AB0F820F911D2191205372
:101EF0002A30C0F31EF4909581959F4F089541E2DA
:101F000054E00E94840F0895FA01A191B0810097D6
:101F100019F41097E1F0CD01DC01CD010D90002006
:101F200011F4C00113C0FB012191222319F02015E7
:101F3000D9F7F3CFFB012191201519F41E921196C8
:101F400006C02223C1F70D900020A1F7D001FA01AD
:101F5000A193B08308957AE0979F902D879F802D5D
:101F6000910D11240895052E97FB1EF400940E94F4
:101F7000CA0F57FD07D00E94D20F07FC03D04EF4C2
:101F80000C94CA0F50954095309521953F4F4F4F77
:101F90005F4F089590958095709561957F4F8F4F15
:101FA0009F4F0895A1E21A2EAA1BBB1BFD010DC075
:101FB000AA1FBB1FEE1FFF1FA217B307E407F507F9
:101FC00020F0A21BB30BE40BF50B661F771F881FD5
:101FD000991F1A9469F760957095809590959B016B
:101FE000AC01BD01CF010895A29FB001B39FC00114
:101FF000A39F700D811D1124911DB29F700D811D35
:102000001124911D089597FB072E16F4009407D014
:1020100077FD09D00E941E1007FC05D03EF4909574
:1020200081959F4F0895709561957F4F08950E9407
:10203000F40FB7FF0895821B930B0895AA1BBB1BD7
:1020400051E107C0AA1FBB1FA617B70710F0A61BB8
:10205000B70B881F991F5A95A9F780959095BC01D9
:10206000CD010895EE0FFF1F0590F491E02D099426
:10207000FB01DC018D91019080190110D9F3990BBE
:10208000089510E0C2E6D0E004C0FE010E943210C4
:0C2090002196C336D107C9F7F894FFCFA2
:10209C00EE02EE02EE02EE02000000002D018D00B9
:1020AC00BA007A01EB00C900DD00000000000C034F
:1020BC008D00A1030B0368038003F3020D0A005487
:1020CC00686973206A75737420696E202E2E2E2019
:1020DC00003A003C41726475696E6F20697320721E
:1020EC00656164793E0042617365004C65667400FD
:1020FC002A2A2A2A2A2A2A2A2A2A2A2A2A2A2A005E
:10210C00526967687400436C6177004175746F6D38
:10211C0061746500546573740052657069746974F8
:10212C00696F6E004A6F79737469636B0050726FDC
:0A213C006772616D0053746F70004C
:00000001FF
