:100000000C9462000C948A000C948A000C948A0070
:100010000C948A000C948A000C948A000C948A0038
:100020000C948A000C948A000C948A000C94AB0502
:100030000C948A000C948A000C948A000C948A0018
:100040000C9461050C948A000C942F050C940905FE
:100050000C948A000C948A000C948A000C948A00F8
:100060000C948A000C948A000000000024002700F1
:100070002A0000000000250028002B0000000008D6
:10008000000201000003040700000000000000005F
:1000900000000000230026002900040404040404D6
:1000A0000404020202020202030303030303010227
:1000B00004081020408001020408102001020408F6
:1000C0001020AC0611241FBECFEFD8E0DEBFCDBF9D
:1000D00012E0A0E0B1E0E2E0F4E102C005900D9290
:1000E000A232B107D9F722E0A2E2B2E001C01D922C
:1000F000AF3FB207E1F710E0C2E6D0E004C02197BD
:10010000FE010E94F909C136D107C9F70E9409070B
:100110000C94FF090C940000CF92DF92EF92FF92B3
:10012000DC01A03282E0B807D4F5A53BB10514F09C
:10013000A4EBB0E04091FD0228E830E0241B310937
:1001400047FD3395220F331F220F331F6901330FF1
:10015000EE08FF084091FE0228E532E0241B310939
:1001600047FD3395220F331F220F331F032E000C40
:10017000440B550B2C193D094E095F09B7FF02C00E
:10018000B0E0A0E00E94B40924EB30E040E050E091
:100190000E948A09C20ED31EE41EF51ED601E0910C
:1001A000FC02EC3080F52091FD0288E890E0821B93
:1001B000910927FD9395880F991F880F991FA817FC
:1001C000B90784F02091FE0288E592E0821B910934
:1001D00027FD9395880F991F880F991FA817B907B6
:1001E0000CF4CD010297880F991F4FB7F8942E2F6A
:1001F00030E0F901EE0FFF1FE20FF31FE952FD4F50
:10020000928381834FBFFF90EF90DF90CF9008954E
:10021000AF92BF92CF92DF92EF92FF920F931F9314
:10022000CF93DF936C017B018B01040F151FEB0152
:100230005E01AE18BF08C017D10759F06991D60109
:10024000ED91FC910190F081E02DC6010995892B7B
:1002500079F7C501DF91CF911F910F91FF90EF903A
:10026000DF90CF90BF90AF900895FC01538D448DE7
:10027000252F30E0842F90E0821B930B541710F051
:10028000CF96089501970895FC01918D828D98175E
:1002900061F0A28DAE0FBF2FB11D5D968C91928D36
:1002A0009F5F9F73928F90E008958FEF9FEF089567
:1002B000FC01918D828D981731F0828DE80FF11D30
:1002C000858D90E008958FEF9FEF0895FC01918D4B
:1002D000228D892F90E0805C9F4F821B91098F7344
:1002E000992708958AE392E00E94660121E0892B14
:1002F00009F420E0822F089580E090E0892B29F016
:100300000E94720181110C9400000895FC01A48DDB
:10031000A80FB92FB11DA35ABF4F2C91848D90E027
:1003200001968F739927848FA689B7892C93A0890A
:10033000B1898C91837080648C93938D848D981394
:1003400006C00288F389E02D80818F7D8083089527
:10035000EF92FF920F931F93CF93DF93EC0181E015
:10036000888F9B8D8C8D98131AC0E889F9898081BC
:1003700085FF15C09FB7F894EE89FF896083E889EF
:10038000F98980818370806480839FBF81E090E0E1
:10039000DF91CF911F910F91FF90EF900895F62E6E
:1003A0000B8D10E00F5F1F4F0F731127E02E8C8D08
:1003B0008E110CC00FB607FCFACFE889F98980814D
:1003C00085FFF5CFCE010E948601F1CFEB8DEC0FBA
:1003D000FD2FF11DE35AFF4FF0829FB7F8940B8F6A
:1003E000EA89FB8980818062CFCFCF93DF93EC01D4
:1003F000888D8823B9F0AA89BB89E889F9898C910D
:1004000085FD03C0808186FD0DC00FB607FCF7CFC8
:100410008C9185FFF2CF808185FFEDCFCE010E94C8
:100420008601E9CFDF91CF910895833081F028F4E0
:10043000813099F08230A9F008958730A9F0883092
:10044000C9F08430B1F4809180008F7D03C0809129
:1004500080008F7780938000089584B58F7784BD66
:10046000089584B58F7DFBCF8091B0008F77809306
:10047000B00008958091B0008F7DF9CFCF93DF93C6
:10048000EEE7F0E08491E0EBF0E0D491ECE9F0E00D
:10049000C491CC23A1F081110E941502EC2FF0E051
:1004A000EE0FFF1FE057FF4FA591B491EC91ED23A4
:1004B00081E090E009F480E0DF91CF91089580E041
:1004C00090E0FACF1F93CF93DF93282F30E0F9010C
:1004D000E458FF4F8491F901E255FF4FD491F9019F
:1004E000E656FF4FC491CC23A9F0162F81110E942C
:1004F0001502EC2FF0E0EE0FFF1FEE58FF4FA59115
:10050000B4918FB7F894EC91111108C0D095DE2307
:10051000DC938FBFDF91CF911F910895DE2BF8CF31
:10052000CF93DF9390E0FC01E255FF4F2491865674
:100530009F4FFC0184918823D1F090E0880F991F90
:10054000FC01E859FF4FA591B491FC01EE58FF4F13
:10055000C591D49161110EC09FB7F8948C91E22F90
:10056000E0958E238C932881E223E8839FBFDF915F
:10057000CF9108958FB7F894EC91E22BEC938FBF55
:10058000F6CF1F93CF93DF93182FEB0161E00E940A
:100590009002209739F460E0812FDF91CF911F9175
:1005A0000C946202E12FF0E0E458FF4FE491E33055
:1005B00039F148F4E130B9F0E230E9F0C038D10562
:1005C00054F361E0E9CFE73029F1E83059F1E43044
:1005D000A9F780918000806280938000D0938B0087
:1005E000C0938A0004C084B5806884BDC7BDDF9114
:1005F000CF911F91089584B5806284BDC8BDF7CFA7
:1006000080918000806880938000D0938900C0939F
:100610008800EDCF8091B00080688093B000C093D7
:10062000B300E5CF8091B00080628093B000C093AA
:10063000B400DDCF3FB7F894809130029091310241
:10064000A0913202B091330226B5A89B05C02F3F7E
:1006500019F00196A11DB11D3FBFBA2FA92F982FE8
:100660008827BC01CD01620F711D811D911D42E0E3
:10067000660F771F881F991F4A95D1F708958F92AB
:100680009F92AF92BF92CF92DF92EF92FF924B0177
:100690005C010E941A036B017C010E941A036C1911
:1006A0007D098E099F09683E734081059105A8F375
:1006B00021E0821A9108A108B10888EEC80E83E0F3
:1006C000D81EE11CF11C81149104A104B10429F786
:1006D000FF90EF90DF90CF90BF90AF909F908F9062
:1006E00008950F931F93482FE0EBF0E06491ECE93D
:1006F000F0E0E4918111462FF0E0EE0FFF1FE0578C
:10070000FF4F8591949100E412E42FE030E00E94C5
:100710006706611571058105910529F06F5F7F4FAF
:100720008F4F9F4F9F701F910F910895FC01019073
:100730000020E9F73197AF01481B590BBC018AE350
:1007400092E00C940801CF93DF930E949603EC0192
:1007500084E191E00E9496038C0F9D1FDF91CF9161
:10076000089587E191E00E94A30370E060E085E0D6
:100770000E94C10270E060E086E00E94C10260E079
:100780008CE00E94620260E08DE00E94620260E004
:1007900089E00E94620260E08AE00E9462026EE1EB
:1007A00070E080E090E00C943F0380E291E00E94D2
:1007B000A3036EE170E085E00E94C1026EE170E08B
:1007C00086E00E94C10261E08CE00E94620260E06B
:1007D0008DE00E94620261E089E00E94620260E0B6
:1007E0008AE00E94620262E370E080E090E00C9494
:1007F0003F0360E084E00E94620260E083E00E94C8
:1008000062020E943E0221E0019709F420E0822F5B
:100810000E947103709329026093280261E083E0D3
:100820000E9462020E943E0221E0019709F420E04A
:10083000822F0E947103709325026093240261E06D
:1008400084E00E9462020E943E0221E0019709F4C6
:1008500020E0822F0E9471039B0170932702609316
:100860002602809128029091290240912402509101
:1008700025028C309105ACF42C30310594F44C30C9
:1008800051057CF48FE291E00E94A30384E090E0A4
:10089000909323028093220280912202909123025E
:1008A0000895841795076CF482179307BCF481347C
:1008B0009105A4F480E491E00E94A30381E090E01C
:1008C000E7CF4817590754F4421753073CF48FE415
:1008D00091E00E94A30382E090E0DACF2817390765
:1008E00054F4241735073CF48FE591E00E94A303EC
:1008F00083E090E0CDCF84E191E00E9496031092D6
:10090000230210922202C8CF8F929F92AF92BF9281
:10091000CF92DF92EF92FF920F931F93CF93DF93CB
:10092000CDB7DEB7A1970FB6F894DEBF0FBECDBF2F
:100930006C01990FEE08FF08F7FE47C06DE28AE3ED
:1009400092E00E94A8018C0122273327A9012C19CB
:100950003D094E095F0919A2CE0181967C019AE0FA
:10096000892E912CA12CB12CCA01B901A5019401A9
:100970000E94BC09605DF70162937F01211531057A
:100980004105510589F790E080E0309719F0CF01DB
:100990000E949603080F191F84E191E00E949603BC
:1009A000800F911FA1960FB6F894DEBF0FBECDBF8A
:1009B000DF91CF911F910F91FF90EF90DF90CF903B
:1009C000BF90AF909F908F900895A701960119A2B4
:1009D0008E010F5D1F4F8AE0C82ED12CE12CF12C27
:1009E000CA01B901A70196010E94BC09605DF80126
:1009F00062938F01211531054105510589F7309723
:100A000029F0CF010E9496038C01C6CF10E000E0D0
:100A1000C3CF1F920F920FB60F9211242F933F93C3
:100A20004F935F936F937F938F939F93AF93BF93F6
:100A3000EF93FF938AE392E00E948601FF91EF918A
:100A4000BF91AF919F918F917F916F915F914F91E6
:100A50003F912F910F900FBE0F901F9018951F92EE
:100A60000F920FB60F9211242F938F939F93EF93B2
:100A7000FF93E0914A02F0914B028081E091500295
:100A8000F091510282FD1BC09081809153028F5FD3
:100A90008F7320915402821741F0E0915302F0E0ED
:100AA000E65CFD4F958F80935302FF91EF919F91EC
:100AB0008F912F910F900FBE0F901F9018958081EE
:100AC000F4CF1F920F920FB60F9211242F933F93E2
:100AD0008F939F93AF93BF9380912C0290912D029F
:100AE000A0912E02B0912F0230912B0223E0230F10
:100AF0002D3758F50196A11DB11D20932B0280932F
:100B00002C0290932D02A0932E02B0932F0280917D
:100B1000300290913102A0913202B09133020196DD
:100B2000A11DB11D8093300290933102A093320237
:100B3000B0933302BF91AF919F918F913F912F91CD
:100B40000F900FBE0F901F90189526E8230F029666
:100B5000A11DB11DD2CF1F920F920FB60F9211247B
:100B60002F933F934F935F936F937F938F939F93B5
:100B7000AF93BF93CF93DF93EF93FF9380912A02BC
:100B8000C091FB02D0E087FF24C010928500109234
:100B9000840080912A028F5F80932A0280912A022A
:100BA000082E000C990B8C179D0724F480912A02C3
:100BB0008C30C4F18091840090918500049680343B
:100BC0009C4908F47AC08091840090918500049635
:100BD00076C080912A02082E000C990B8C179D0775
:100BE000C4F6E0912A028E2FEE0F990BFC01EE0F56
:100BF000FF1FE80FF91FE952FD4F808186FFC9CF23
:100C0000E0912A028E2FEE0F990BFC01EE0FFF1FD1
:100C1000E80FF91FE952FD4F808160E08F730E9459
:100C20006202B7CF2091840030918500E0912A02C2
:100C30008E2FEE0F990BFC01EE0FFF1FE80FF91F2F
:100C4000E952FD4F81819281820F931F9093890019
:100C500080938800E0912A028E2FEE0F990BFC0101
:100C6000EE0FFF1FE80FF91FE952FD4F808186FF4D
:100C700011C0E0912A028E2FEE0F990BFC01EE0FAE
:100C8000FF1FE80FF91FE952FD4F808161E08F736C
:100C90000E946202FF91EF91DF91CF91BF91AF91DE
:100CA0009F918F917F916F915F914F913F912F9184
:100CB0000F900FBE0F901F90189580E49CE99093C1
:100CC0008900809388008FEF80932A02E3CFCF9230
:100CD000DF92EF92FF920F931F93E82FF92F05C039
:100CE000015011092109310961F19081962394176E
:100CF000B9F305C0015011092109310911F19081A1
:100D000096239413F7CFC12CD12CE12CF12C0AC0DF
:100D10008FEFC81AD80AE80AF80A0C151D052E0527
:100D20003F0579F080818623841791F36C2D7D2D0A
:100D30008E2D9F2D1F910F91FF90EF90DF90CF9000
:100D4000089560E070E080E090E01F910F91FF90C7
:100D5000EF90DF90CF90089510923D0210923C02E8
:100D600088EE93E0A0E0B0E080933E0290933F02D3
:100D7000A0934002B093410286E091E090933B0241
:100D800080933A0285EC90E090934702809346026C
:100D900084EC90E0909349028093480280EC90E0CC
:100DA00090934B0280934A0281EC90E090934D0225
:100DB00080934C0282EC90E090934F0280934E021D
:100DC00086EC90E09093510280935002109253026F
:100DD0001092540210925502109256028091FB021A
:100DE0008C3098F491E0980F9093FB028093FC0272
:100DF00090E0FC01EE0FFF1FE80FF91FE952FD4FD5
:100E000088EB9BE09283818308958FEF8093FC02AF
:100E10000895789484B5826084BD84B5816084BD72
:100E200085B5826085BD85B5816085BD80916E0088
:100E3000816080936E0010928100809181008260B9
:100E400080938100809181008160809381008091F6
:100E500080008160809380008091B10084608093E5
:100E6000B1008091B00081608093B00080917A00E1
:100E7000846080937A0080917A00826080937A0007
:100E800080917A00816080937A0080917A008068F6
:100E900080937A001092C100E0914A02F0914B02D7
:100EA00082E08083E0914602F09147021082E09157
:100EB0004802F09149028FEC808310925202E09137
:100EC0004E02F0914F0286E08083E0914C02F09157
:100ED0004D02808180618083E0914C02F0914D024F
:100EE000808188608083E0914C02F0914D02808186
:100EF00080688083E0914C02F0914D0280818F7D6B
:100F000080838091FC028C3008F051C061E08BE05E
:100F10000E9490028091FC02282F30E0F901EE0F30
:100F2000FF1FE20FF31FE952FD4F9081907C9B6001
:100F300090831092FD021092FE022CE0622F0E941C
:100F4000ED09829FB001112430E020E0AB01420F97
:100F5000531FFA01EE0FFF1FE40FF51FE952FD4F7B
:100F6000908196FD16C02F5F3F4F2C30310571F7F1
:100F700081110FC01092800082E080938100109256
:100F8000850010928400B19A80916F0082608093F6
:100F90006F00E091FC028E2F90E0FC01EE0FFF1F2E
:100FA000E80FF91FE952FD4F8081806480838AE554
:100FB00090E00E948C0061E087E00E94900261E076
:100FC00088E00E94900261E084E00E94900261E06B
:100FD00083E00E94900260E082E00E94900261E063
:100FE00087E00E94620261E088E00E94620261E0A4
:100FF0008CE00E94900261E08DE00E94900261E02E
:1010000089E00E94900261E08AE00E94900261E023
:1010100085E00E94900261E086E00E94900260ED0F
:1010200077E080E090E00E943F0380E791E00E943B
:10103000A30368EE73E080E090E00E943F030E940B
:10104000F90390933902809338020E9484048091BE
:10105000380290913902049769F488E791E00E9480
:10106000A3030E94B1030E94F90390933902809375
:101070003802EDCF8EE891E00E94A3038091380200
:101080009091390290933702809336020E94840433
:101090000AE510E08AEAC82ED12C90E0E92E90E013
:1010A000F92E2091380230913902809136029091C8
:1010B00037022817390731F58CE991E00E94A30324
:1010C00080913602909137028230910591F0833001
:1010D000910591F0019799F48BEA91E00E94A303A6
:1010E0000E94D5030E94F90390933902809338023D
:1010F000D8CF8FEB91E0F2CF84ED91E0EFCF8AEE85
:1011000091E0ECCF0E94B10389EF91E00E94A3032C
:1011100010923502109234021093010100930001E5
:10112000A0900001B09001018AE0A816B1048CF0F3
:10113000C5010E948C006AE070E080E090E00E94AF
:101140003F0381E0A81AB108B0920101A09200010A
:10115000E7CF0E94F90390933902809338022091DF
:101160003602309137028217930709F47EC010923D
:10117000010110920001A0900001B09001018BEAE2
:10118000A816B1048CF4C5010E948C006AE070E0DE
:1011900080E090E00E943F038FEFA81AB80AB09257
:1011A0000101A0920001E7CF0E94F9039093390258
:1011B00080933802209136023091370282179307CC
:1011C00009F456C0D0920101C0920001A090000124
:1011D000B09001018AE5A816B1048CF0C5010E9407
:1011E0008C006AE070E080E090E00E943F0381E0C4
:1011F000A81AB108B0920101A0920001E7CF0E94A5
:10120000F90390933902809338022091360230918D
:1012100037028217930779F16AE070E080E090E08E
:101220000E943F03D0933502C0933402CE010E9446
:10123000840480913402909135028130910549F106
:10124000ECF4892B19F10E94F903909339028093F1
:101250003802E114F10409F424CF0E9472018823BA
:1012600009F41FCF0E9400001CCFC2E0D0E0DACF0B
:10127000C1E0D0E0D7CFC3E0D0E0D4CF8230910539
:1012800069F1039701F70E94D503DDCF0E94B103F6
:10129000DACF88E092E00E94A30364E670E085E084
:1012A0000E94C10266E970E086E00E94C10261E02E
:1012B0008CE00E94620260E08DE00E94620260E0C9
:1012C00089E00E94620261E08AE00E94620262E3B9
:1012D00070E080E090E00E943F03B5CF84E192E0AF
:1012E0000E94A30368EC70E085E00E94C10264E6FE
:1012F00070E086E00E94C10260E08CE00E94620221
:1013000061E08DE00E94620261E089E00E94620279
:1013100060E0DACF052E97FB1EF400940E94A1092D
:1013200057FD07D00E94BC0907FC03D04EF40C9473
:10133000A10950954095309521953F4F4F4F5F4FF4
:10134000089590958095709561957F4F8F4F9F4F31
:1013500008950E94DE09A59F900DB49F900DA49F53
:10136000800D911D11240895B7FF0C94A9090E94C6
:10137000A909821B930B0895A1E21A2EAA1BBB1B7D
:10138000FD010DC0AA1FBB1FEE1FFF1FA217B30751
:10139000E407F50720F0A21BB30BE40BF50B661F67
:1013A000771F881F991F1A9469F76095709580952B
:1013B00090959B01AC01BD01CF010895A29FB001A2
:1013C000B39FC001A39F700D811D1124911DB29F79
:1013D000700D811D1124911D0895991B79E004C0A1
:1013E000991F961708F0961B881F7A95C9F7809564
:1013F0000895EE0FFF1F0590F491E02D0994F894E5
:02140000FFCF1C
:101402005A0000000000A80108013501F50166013B
:10141200440158010D0A0053746F7070696E6700C1
:101422004D6F76696E6720666F7277617264002015
:101432002D2028576869746520436F6C6F722900EC
:10144200202D202852656420436F6C6F7229002082
:101452002D2028426C756520436F6C6F7229002025
:101462002D2028477265656E20436F6C6F722900CC
:1014720053746172746564004E6F20524742206C4F
:10148200696E6520646574656374656421004C69E6
:101492006E6520646574656374656400466F6C6C88
:1014A2006F77696E67206C696E6500466F6C6C6F52
:1014B20077696E672052454420636F6C6F720046F5
:1014C2006F6C6C6F77696E6720424C554520636F75
:1014D2006C6F7200466F6C6C6F77696E6720475253
:1014E20045454E20636F6C6F7200556E6B6E6F7761
:1014F2006E20636F6C6F757200436865636B696E13
:101502006720636F6C6F72004D6F76696E67206C37
:10151200656674004D6F76696E67207269676874DC
:021522000000C7
:00000001FF
