:100000000C945D000C9485000C9485000C94850084
:100010000C9485000C9485000C9485000C9485004C
:100020000C9485000C9477030C9485000C94850047
:100030000C9485000C9485000C9485000C9485002C
:100040000C942D030C9485000C94FB020C94D502A7
:100050000C9485000C9485000C9485000C9485000C
:100060000C9485000C9485000000000024002700FB
:100070002A0000000000250028002B0004040404CE
:100080000404040402020202020203030303030342
:10009000010204081020408001020408102001021F
:1000A00004081020000000080002010000030407FB
:1000B00000000000000000002C0411241FBECFEF40
:1000C000D8E0DEBFCDBF11E0A0E0B1E0E4EFFBE09F
:1000D00002C005900D92AA31B107D9F721E0AAE13B
:1000E000B1E001C01D92AB3EB207E1F710E0CDE5F3
:1000F000D0E004C02197FE010E94F205CC35D10763
:10010000C9F70E9468040C94F8050C940000AF92A3
:10011000BF92CF92DF92EF92FF920F931F93CF93F4
:10012000DF936C017B018B01040F151FEB015E0156
:10013000AE18BF08C017D10759F06991D601ED91EB
:10014000FC910190F081E02DC6010995892B79F78A
:10015000C501DF91CF911F910F91FF90EF90DF903C
:10016000CF90BF90AF900895FC01538D448D252F03
:1001700030E0842F90E0821B930B541710F0CF9641
:10018000089501970895FC01918D828D981761F073
:10019000A28DAE0FBF2FB11D5D968C91928D9F5F8A
:1001A0009F73928F90E008958FEF9FEF0895FC0169
:1001B000918D828D981731F0828DE80FF11D858D1C
:1001C00090E008958FEF9FEF0895FC01918D228DAF
:1001D000892F90E0805C9F4F821B91098F73992734
:1001E00008958AE491E00E94E50021E0892B09F45A
:1001F00020E0822F089580E090E0892B29F00E9472
:10020000F10081110C9400000895FC01A48DA80F49
:10021000B92FB11DA35ABF4F2C91848D90E0019648
:100220008F739927848FA689B7892C93A089B18968
:100230008C91837080648C93938D848D981306C009
:100240000288F389E02D80818F7D80830895EF926D
:10025000FF920F931F93CF93DF93EC0181E0888F80
:100260009B8D8C8D98131AC0E889F989808185FF50
:1002700015C09FB7F894EE89FF896083E889F989F2
:1002800080818370806480839FBF81E090E0DF91F4
:10029000CF911F910F91FF90EF900895F62E0B8D47
:1002A00010E00F5F1F4F0F731127E02E8C8D8E1102
:1002B0000CC00FB607FCFACFE889F989808185FF69
:1002C000F5CFCE010E940501F1CFEB8DEC0FFD2F94
:1002D000F11DE35AFF4FF0829FB7F8940B8FEA8924
:1002E000FB8980818062CFCFCF93DF93EC01888D33
:1002F0008823B9F0AA89BB89E889F9898C9185FDA1
:1003000003C0808186FD0DC00FB607FCF7CF8C912E
:1003100085FFF2CF808185FFEDCFCE010E940501E0
:10032000E9CFDF91CF91089590E0FC01EC55FF4FAC
:100330002491FC01E057FF4F3491FC01E458FF4F3A
:10034000E491EE23C9F0222339F0233001F1A8F41F
:10035000213019F1223029F1F0E0EE0FFF1FEE58A5
:10036000FF4FA591B4918FB7F894EC91611126C01D
:1003700030953E233C938FBF08952730A9F0283055
:10038000C9F0243049F7809180008F7D03C08091AF
:1003900080008F7780938000DFCF84B58F7784BD16
:1003A000DBCF84B58F7DFBCF8091B0008F778093BA
:1003B000B000D2CF8091B0008F7DF9CF3E2BDACF45
:1003C0008E3008F08E508770806480937C0080911E
:1003D0007A00806480937A0080917A0086FDFCCF59
:1003E000809178009091790008953FB7F8948091BA
:1003F0003E0190913F01A0914001B091410126B58D
:10040000A89B05C02F3F19F00196A11DB11D3FBF4C
:10041000BA2FA92F982F8827BC01CD01620F711D1B
:10042000811D911D42E0660F771F881F991F4A9515
:10043000D1F708958F929F92AF92BF92CF92DF92A1
:10044000EF92FF920E94F5014B015C018AE0C82EF9
:10045000D12CE12CF12C0E94F501681979098A0947
:100460009B09683E734081059105A8F321E0C21AFB
:10047000D108E108F10888EE880E83E0981EA11CDF
:10048000B11CC114D104E104F10429F7FF90EF90ED
:10049000DF90CF90BF90AF909F908F900895DC0138
:1004A000EC918FEF8E0F8830F8F4CB016B3C7840E5
:1004B00014F08AEC98E08E3E22E0920714F48EEE5F
:1004C00092E00897AC01440F452F441F550B2E2F87
:1004D00030E0F901EE0FFF1FE20FF31FE25EFE4F67
:1004E0004183880F809582830895CF93DF93DC0149
:1004F00080911D01811121C0EEE1F1E09BE087E5D3
:1005000094838583339621E0E633F207C9F78EE3BF
:1005100080931F0110921C0110921B011092700019
:100520001092B00082E08093B1001092B20081E09E
:1005300087BB8093700080931D018C91882309F400
:1005400030C09B013327F901E057FF4F84912458B5
:100550003F4FF9012491222399F030E0220F331FFD
:10056000F901E859FF4FC591D491F901EE58FF4FB9
:10057000259134919FB7F894E881E82BE8839FBFD9
:10058000EC918E2F90E0FC01EE0FFF1FE80FF91F9A
:10059000E25EFE4F862F8F716081607E682B606205
:1005A00060838C91DF91CF9108951F920F920FB6C7
:1005B0000F9211242F933F934F935F936F937F93E9
:1005C0008F939F93AF93BF93EF93FF938AE491E050
:1005D0000E940501FF91EF91BF91AF919F918F9183
:1005E0007F916F915F914F913F912F910F900FBE2F
:1005F0000F901F9018951F920F920FB60F92112413
:100600002F938F939F93EF93FF93E0915A01F09173
:100610005B018081E0916001F091610182FD1BC06E
:100620009081809163018F5F8F73209164018217A5
:1006300041F0E0916301F0E0E65BFE4F958F80931F
:100640006301FF91EF919F918F912F910F900FBEBA
:100650000F901F9018958081F4CF1F920F920FB6C4
:100660000F9211242F933F938F939F93AF93BF9338
:1006700080913A0190913B01A0913C01B0913D01E4
:100680003091390123E0230F2D3758F50196A11D34
:10069000B11D2093390180933A0190933B01A093BF
:1006A0003C01B0933D0180913E0190913F01A091AA
:1006B0004001B09141010196A11DB11D80933E0101
:1006C00090933F01A0934001B0934101BF91AF913E
:1006D0009F918F913F912F910F900FBE0F901F9080
:1006E000189526E8230F0296A11DB11DD2CF1F92A7
:1006F0000F920FB60F9211242F933F934F935F9356
:100700006F937F938F939F93AF93BF93EF93FF93D9
:1007100080911B018F5F80931B01E0911C01209150
:100720001B018E2F90E0FC01EE0FFF1FE80FF91F59
:10073000E25EFE4F8181E0911C0182131DC08E2F6D
:1007400090E0FC01EE0FFF1FE80FF91FE25EFE4F85
:1007500082818093B200FF91EF91BF91AF919F9101
:100760008F917F916F915F914F913F912F910F905A
:100770000FBE0F901F90189520911B018E2F90E0B7
:10078000FC01EE0FFF1FE80FF91FE25EFE4F8181B3
:10079000821708F7E0911C018E2F90E0FC01EE0F0C
:1007A000FF1FE80FF91FE25EFE4F808185FF10C03A
:1007B000E0911C018E2F90E0FC01EE0FFF1FE80F6F
:1007C000F91FE25EFE4F808160E08F710E9494010C
:1007D00080911C018F5F80931C0110921B0110926D
:1007E000B20080911C01882319F180911C0189308D
:1007F000F8F4E0911C018E2F90E0FC01EE0FFF1F3A
:10080000E80FF91FE25EFE4F808185FFA4CFE091E3
:100810001C018E2F90E0FC01EE0FFF1FE80FF91F67
:10082000E25EFE4F808161E08F710E94940193CF60
:1008300080911C01893008F48ECF10921C018BCF5F
:10084000FC0190911A01983028F49F5F90931A014F
:100850009083089510820895EAE4F1E013821282F1
:1008600088EE93E0A0E0B0E084839583A683B7830D
:100870008CE091E09183808385EC90E0958784877C
:1008800084EC90E09787868780EC90E0918B808B5A
:1008900081EC90E0938B828B82EC90E0958B848B43
:1008A00086EC90E0978B868B118E128E138E148EB1
:1008B0008AEE91E00E94200489EE91E00E942004DB
:1008C00088EE91E00E94200487EE91E00C942004D1
:1008D000789484B5826084BD84B5816084BD85B51B
:1008E000826085BD85B5816085BD80916E00816027
:1008F00080936E00109281008091810082608093CD
:1009000081008091810081608093810080918000CE
:100910008160809380008091B10084608093B100F9
:100920008091B00081608093B00080917A008460F3
:1009300080937A0080917A00826080937A0080911F
:100940007A00816080937A0080917A008068809339
:100950007A001092C100E0915A01F0915B0182E0AF
:100960008083E0915601F09157011082E091580187
:10097000F09159018FEC808310926201E0915E0149
:10098000F0915F0186E08083E0915C01F0915D0170
:10099000808180618083E0915C01F0915D018081C4
:1009A00088608083E0915C01F0915D0180818068C6
:1009B0008083E0915C01F0915D0180818F7D808377
:1009C00066E070E08AEE91E00E94750269E070E0F6
:1009D00089EE91E00E9475026AE070E088EE91E095
:1009E0000E9475026BE070E087EE91E00E94750254
:1009F00060910601709107018AEE91E00E944F021A
:100A0000609104017091050189EE91E00E944F020E
:100A1000609102017091030188EE91E00E944F0203
:100A2000609100017091010187EE91E00E944F02F8
:100A3000C0E0D0E08EE00E94E0015C0190934901AB
:100A40008093480181E10E94E0016C01909347018D
:100A50008093460180E10E94E0017C019093450172
:100A6000809344018FE00E94E0018C019093430148
:100A7000809342018EE5A81681E0B8060CF06CC0A8
:100A800060910601709107016B3C88E0780764F47F
:100A9000605F7F4F709307016093060189EE91E0DC
:100AA0000E944F020E941A028BE8C81682E0D80604
:100AB0000CF464C060910401709105016B3C88E006
:100AC000780764F4605F7F4F7093050160930401C1
:100AD00088EE91E00E944F020E941A028BE8E8160D
:100AE00082E0F8060CF45CC0609102017091030191
:100AF000633F82E0780764F06051710970930301ED
:100B00006093020187EE91E00E944F020E941A0258
:100B10000E3581E018070CF055C06091000170910E
:100B20000101633F82E0780764F0605171097093BE
:100B30000101609300018AEE91E00E944F020E9441
:100B40001A02209709F476CF0E94F100882309F455
:100B500071CF0E9400006ECF8BE8A81682E0B80625
:100B60000CF4A2CF6091060170910701633F82E00F
:100B700078070CF499CF605171098CCF8EE5C816B7
:100B800081E0D8060CF0AACF6091040170910501B4
:100B9000633F82E078070CF4A1CF6051710994CFD4
:100BA0008EE5E81681E0F8060CF0B2CF6091020104
:100BB000709103016B3C88E078070CF0A9CF605F6F
:100BC0007F4F9CCF0B3812400CF4BBCF60910001DB
:100BD000709101016B3C88E078070CF0B2CF605F48
:100BE0007F4FA5CFEE0FFF1F0590F491E02D0994E4
:040BF000F894FFCFA7
:100BF400EE02EE02EE02EE02000000002701870082
:0A0C0400B4007401E500C300D7003E
:00000001FF
